:100000000C94AF000C94CC000C94CC000C94CC005D
:100010000C94CC000C94CC000C94CC000C94CC0030
:100020000C94CC000C94CC000C94F41A0C94CC00DE
:100030000C94CC000C94801C0C94CC000C94CC0040
:100040000C94CC000C94CC000C94CC000C94CC0000
:100050000C94CC00696E6600494E46006E616E00DD
:100060004E414E0000407A10F35A00A0724E18091B
:100070000010A5D4E80000E87648170000E40B540F
:10008000020000CA9A3B000000E1F50500008096DE
:100090009800000040420F000000A0860100000010
:1000A000102700000000E8030000000064000000CA
:1000B00000000A00000000000100000000002C7693
:1000C000D888DC674F0823DFC1DFAE59E1B1B796AE
:1000D000E5E3E453C63AE651997696E8E6C284260B
:1000E000EB898C9B62ED407C6FFCEFBC9C9F40F2E7
:1000F000BAA56FA5F490055A2AF75C936B6CF96763
:100100006DC11BFCE0E40D47FEF520E6B500D0ED27
:10011000902E0300943577050080841E080000208F
:100120004E0A000000C80C333333330F986E12832D
:100130001141EF8D2114893BE65516CFFEE6DB1801
:10014000D1844B381BF77C1D901DA4BBE4242032C6
:1001500084725E228100C9F124ECA1E53D271124BF
:100160001FBECFE5D8E0DEBFCDBF11E0A0E6B0E016
:10017000E4ECFCE402C005900D92A038B107D9F779
:1001800011E0A0E8B1E001C01D92AC3FB107E1F77A
:100190000E9487250C9460260C940000EF92FF9239
:1001A0000F931F937B018C0120E030E040E05FE47F
:1001B0000E94CE0388238CF0C801B70120E030E014
:1001C00040E05FE40E9446020E942E049B01AC01C5
:1001D000205030404040504806C0C801B7010E943E
:1001E0002E049B01AC01B901CA011F910F91FF9030
:1001F000EF900895A0E0B0E0E0E0F1E00C94292653
:10020000DC012B01FA019C91923008F439C1EB0119
:100210008881823008F433C1943069F4843009F065
:100220002FC111969C9111978981981709F428C1C3
:10023000ACE4B1E025C1843009F421C18230A9F4D5
:10024000923009F01DC19A01AD0188E0EA010990E0
:10025000AE01E90109929E018150C1F7E201898155
:1002600011969C918923818308C1923009F407C1BA
:1002700012962D903C901397EB018A819B811496E6
:10028000AD90BD90CD90DC901797EC80FD800E81F5
:100290001F819101281B390BB90137FF04C0662764
:1002A0007727621B730B603271050CF061C0121668
:1002B00013066CF537014801062E04C09694879406
:1002C000779467940A94D2F721E030E040E050E060
:1002D00004C0220F331F441F551F6A95D2F72150C7
:1002E0003040404050402E213F21402351232115D2
:1002F00031054105510521F021E030E040E050E0BA
:1003000079018A01E628F728082919293CC0232BFE
:10031000D1F1260E371E35014601062E04C09694F3
:100320008794779467940A94D2F721E030E040E014
:1003300050E004C0220F331F441F551F6A95D2F7A7
:1003400021503040404050402A213B214C215D212A
:10035000211531054105510521F021E030E040E053
:1003600050E059016A01A628B728C828D9280BC02F
:10037000821593052CF01C01AA24BB24650103C03F
:10038000EE24FF24870111969C91D20111968C9145
:10039000981709F445C0992339F0A80197012A1943
:1003A0003B094C095D0906C0A60195012E193F09BC
:1003B000400B510B57FD08C01182338222822483E7
:1003C0003583468357831DC081E081833382228237
:1003D00088279927DC01821B930BA40BB50B848320
:1003E0009583A683B7830DC0220F331F441F551F6B
:1003F0002483358346835783828193810197938336
:1004000082832481358146815781DA01C9010197B0
:10041000A109B1098F5F9F4FAF4FBF4328F30BC0B6
:10042000918333822282EA0CFB1C0C1D1D1DE48289
:10043000F5820683178383E080832481358146819A
:10044000578157FF1AC0C901AA2797FDA095BA2F57
:1004500081709070A070B07056954795379527952C
:10046000822B932BA42BB52B84839583A683B783F0
:1004700082819381019693838283DF0101C0D2013F
:10048000CD01CDB7DEB7E2E10C944526A0E2B0E0A5
:10049000ECE4F2E00C94352669837A838B839C83A9
:1004A0002D833E834F835887E9E0EE2EF12CEC0E2E
:1004B000FD1ECE010196B7010E9457058E010F5E09
:1004C0001F4FCE010596B8010E9457058A8991E019
:1004D00089278A8BC701B801AE01475E5F4F0E9432
:1004E000FA000E948204A096E6E00C945126A0E255
:1004F000B0E0EDE7F2E00C94352669837A838B83D4
:100500009C832D833E834F835887F9E0EF2EF12C97
:10051000EC0EFD1ECE010196B7010E9457058E011B
:100520000F5E1F4FCE010596B8010E945705C70107
:10053000B801AE01475E5F4F0E94FA000E9482043C
:10054000A096E6E00C945126A0E2B0E0EAEAF2E0E0
:100550000C94292669837A838B839C832D833E8325
:100560004F835887CE010196BE01675F7F4F0E947F
:100570005705CE010596BE016F5E7F4F0E9457055D
:100580009985923088F089898230C8F0943019F4C6
:10059000823051F404C0843029F4923081F48CE428
:1005A00091E0C6C0923049F420E09A858A89981378
:1005B00021E02A87CE010996BBC0823049F420E0B1
:1005C0009A858A89981321E02A8BCE014196B0C082
:1005D0002D843E844F8458886D887E888F88988CBF
:1005E000EE24FF248701AA24BB24650140E050E0EB
:1005F00060E070E0E0E0F0E0C10181709070892B74
:10060000E9F0E60CF71C081D191D9A01AB012A0D33
:100610003B1D4C1D5D1D80E090E0A0E0B0E0E614C5
:10062000F7040805190520F481E090E0A0E0B0E0AF
:10063000BA01A901480F591F6A1F7B1FAA0CBB1CD6
:10064000CC1CDD1C97FE08C081E090E0A0E0B0E08B
:10065000A82AB92ACA2ADB2A3196E032F10549F0E4
:10066000660C771C881C991C5694479437942794E1
:10067000C3CFFA85EA892B893C898B859C85280F15
:10068000391F2E5F3F4F17C0CA0181709070892BB0
:1006900061F016950795F794E79480E090E0A0E06C
:1006A000B0E8E82AF92A0A2B1B2B7695679557950F
:1006B00047952F5F3F4F77FDE7CF0CC0440F551F85
:1006C000661F771F17FD4160EE0CFF1C001F111FF6
:1006D00021503040403090E0590790E0690790E4A5
:1006E000790760F32B8F3C8FDB01CA018F77907005
:1006F000A070B07080349105A105B10561F447FD8B
:100700000AC0E114F1040105110529F0405C5F4FB6
:100710006F4F7F4F40781A8EFE1711F081E08A8F5D
:100720004D8F5E8F6F8F78A383E0898FCE014996BE
:100730000E948204A096E2E10C944526A8E1B0E074
:10074000E4EAF3E00C94352669837A838B839C83F7
:100750002D833E834F83588789E0E82EF12CEC0EE1
:10076000FD1ECE010196B7010E9457058E010F5E56
:100770001F4FCE010596B8010E945705898582302A
:1007800040F08989823028F0C701B8010E94CF0566
:1007900001C08FEF6896E6E00C945126A8E1B0E026
:1007A000E4EDF3E00C94352669837A838B839C8394
:1007B0002D833E834F83588789E0E82EF12CEC0E81
:1007C000FD1ECE010196B7010E9457058E010F5EF6
:1007D0001F4FCE010596B8010E94570589858230CA
:1007E00040F08989823028F0C701B8010E94CF0506
:1007F00001C08FEF6896E6E00C945126A8E1B0E0C6
:10080000E4E0F4E00C94352669837A838B839C833F
:100810002D833E834F83588789E0E82EF12CEC0E20
:10082000FD1ECE010196B7010E9457058E010F5E95
:100830001F4FCE010596B8010E9457058985823069
:1008400040F08989823028F0C701B8010E94CF05A5
:1008500001C081E06896E6E00C945126ACE0B0E07F
:10086000E4E3F4E00C94392669837A838B839C83D8
:10087000CE010196BE016B5F7F4F0E9457058D81AF
:10088000823061F1823050F1843021F48E818823EE
:1008900051F12EC02F81388537FD20C06E812F3158
:1008A00031051CF06623F9F023C08EE190E0821B35
:1008B000930B29853A854B855C8504C056954795F1
:1008C000379527958A95D2F76623B1F050954095D4
:1008D000309521953F4F4F4F5F4F0EC020E030E0E5
:1008E00040E050E009C02FEF3FEF4FEF5FE704C05B
:1008F00020E030E040E050E8B901CA012C96E2E087
:100900000C945526DF92EF92FF920F931F93FC01F8
:10091000E480F58006811781D1808081823048F49F
:1009200080E090E0A0E1B0E0E82AF92A0A2B1B2B36
:10093000A5C0843009F49FC0823021F4EE24FF2446
:10094000870105C0E114F1040105110519F4E0E087
:10095000F0E096C0628173819FEF623879070CF0F6
:100960005BC022E83FEF261B370B2A3131052CF004
:1009700020E030E040E050E02AC0B801A701022E9C
:1009800004C076956795579547950A94D2F781E00C
:1009900090E0A0E0B0E004C0880F991FAA1FBB1F21
:1009A0002A95D2F70197A109B1098E219F21A02391
:1009B000B1230097A105B10521F081E090E0A0E00E
:1009C000B0E09A01AB01282B392B4A2B5B2BDA01C3
:1009D000C9018F779070A070B07080349105A10527
:1009E000B10539F427FF09C0205C3F4F4F4F5F4FDF
:1009F00004C0215C3F4F4F4F5F4FE0E0F0E02030FC
:100A0000A0E03A07A0E04A07A0E45A0710F0E1E0AE
:100A1000F0E079018A0127C06038710564F5FB01B7
:100A2000E158FF4FD801C7018F779070A070B07068
:100A300080349105A105B10539F4E7FE0DC080E4CD
:100A400090E0A0E0B0E004C08FE390E0A0E0B0E070
:100A5000E80EF91E0A1F1B1F17FF05C01695079504
:100A6000F794E794319687E016950795F794E79405
:100A70008A95D1F705C0EE24FF248701EFEFF0E05F
:100A80006E2F679566276795902F9F77D794DD2403
:100A9000D7948E2F8695492F462B582F5D29B70165
:100AA000CA011F910F91FF90EF90DF900895FC0114
:100AB000DB01408151812281622F6F7770E0221F1C
:100AC0002227221F9381892F880F822B282F30E025
:100AD000991F9927991F11969C93119721153105FC
:100AE000A9F5411551056105710511F482E037C082
:100AF00082E89FEF13969C938E9312979A01AB0115
:100B000067E0220F331F441F551F6A95D1F783E01A
:100B10008C930DC0220F331F441F551F12968D91C9
:100B20009C911397019713969C938E931297203064
:100B300080E0380780E0480780E4580758F31496AF
:100B40002D933D934D935C93179708952F3F310557
:100B500079F4411551056105710519F484E08C9310
:100B6000089564FF03C081E08C9312C01C9210C0F2
:100B70002F57304013963C932E93129783E08C931B
:100B800087E0440F551F661F771F8A95D1F7706461
:100B900014964D935D936D937C93179708951F93CF
:100BA000DC01FB019C91923008F447C080818230C7
:100BB00008F443C0943051F411961C91843099F597
:100BC0008181682F70E0611B71093FC0843021F082
:100BD000923031F48230B9F18181882389F12DC0BE
:100BE00011961C9111978230F1F081811817D9F478
:100BF00012962D913C9113978281938182179307CE
:100C000094F028173907BCF014968D919D910D90A2
:100C1000BC91A02D24813581468157812817390741
:100C20004A075B0718F4112341F00AC082179307A3
:100C3000A407B50740F4112319F061E070E005C086
:100C40006FEF7FEF02C060E070E0CB011F9108956D
:100C5000A0E0B0E0EEE2F6E00C9434267A01D02E6B
:100C6000122F283008F017E0A701212F00E00E9482
:100C7000AE06682FF7015191252F50FF04C053FD98
:100C800002C08DE209C0D1FE02C08BE205C0D0FCDB
:100C900002C0C70104C080E2D7018C93CF01482F66
:100CA000392F23FF03C06CE570E004C022FF0BC0A6
:100CB00064E570E0D2FE02C06C5F7F4F842F932FFB
:100CC0000E94860745C0F7012181DC012D93213365
:100CD00009F05F7E1123A9F0E701842F932FFC0117
:100CE000912F2EE28A812183915021963196282FCF
:100CF0009923C1F71150812F90E00196A80FB91FD9
:100D00002D93D2FC02C085E601C085E4962FFD013B
:100D1000819367FF07C08DE211968C93DF011196D6
:100D200091950AC0662329F454FF03C0DF018DE2C8
:100D300002C0DF018BE28D9380E302C08F5F9A5087
:100D40009A30E4F7FD018193905D11969C93118296
:100D5000C701CDB7DEB7E7E00C945026283008F085
:100D600027E03327DA01990F311D87FD9160009646
:100D70006105710539F432602E5F3D9330E32A95A9
:100D8000E1F708959F3F30F080387105610509F063
:100D90003C5F3C5F3D93913008F08068911DDF938C
:100DA000CF931F930F93FF92EF92192F987F9695F1
:100DB000E92F96959695E90FFF27E254FF4F992763
:100DC0003327EE24FF24A701E70105900894079438
:100DD00028F4360FE71EF81E491F511D660F771FB6
:100DE000881F991F0694A1F70590079428F4E70E31
:100DF000F81E491F561FC11D770F881F991F661FB8
:100E00000694A1F70590079428F4F80E491F561F81
:100E1000C71FD11D880F991F661F771F0694A1F762
:100E20000590079420F4490F561FC71FD81F990F2C
:100E3000661F771F881F0694A9F784911095177075
:100E400041F0D695C79557954795F794E7941A952D
:100E5000C1F7E4E6F0E0689415901591359165913D
:100E6000959105907FE27395E118F10A430B560BBB
:100E7000C90BD009C0F7E10CF11E431F561FC91F53
:100E8000D01D7EF4703311F48A95E6CFE8940150BA
:100E900030F0080F0AF40027021708F4202F2395DA
:100EA000022F7A3328F079E37D932A95E9F710C071
:100EB0007D932A9589F606949795679537951795AA
:100EC0001794E118F10A430B560BC90BD00998F09F
:100ED00023957E9173957A3308F070E37C93201309
:100EE000B8F77E9170617D9330F0839571E37D93C7
:100EF00070E32A95E1F71124EF90FF900F911F9175
:100F0000CF91DF91992787FD90950895FB01DC0132
:100F100005900D920020E1F70895FB01DC018D9111
:100F2000019080190110D9F3990B0895FB01DC01A0
:100F300001900D920020E1F70895FC01019000203E
:100F4000E9F7809590958E0F9F1F0895FB019F01F3
:100F5000E8944230C4F04532B4F44A3029F497FBA7
:100F60001EF4909581959F4F642F77270E94F3255B
:100F7000805D8A330CF0895D8193CB010097A1F7E6
:100F800016F45DE251931082C9010C94C707DC018D
:100F9000FC01672F71917723E1F7329704C07C91B0
:100FA0006D9370836291AE17BF07C8F30895DF9306
:100FB000CF930F92CDB7DEB71982AAE2B0E0EAE292
:100FC000F0E0808180618C93AAE2B0E0EAE2F0E098
:100FD000808188608C93AAE2B0E0EAE2F0E0808150
:100FE00080688C93AAE2B0E0EAE2F0E080818B7F37
:100FF0008C938981846089838981826089838981D6
:101000008068898389818F7B89838981877F8983B0
:10101000E0E4F0E089818083E9E2F0E083E380832B
:101020000F90CF91DF910895DF93CF930F92CDB7BB
:10103000DEB78983EBE2F0E0808182958695877048
:10104000882F90E0817090700097A1F3ECE2F0E0BF
:10105000898180830F90CF91DF910895DF93CF93A3
:10106000CDB7DEB7EBE2F0E080818823DCF7ECE27D
:10107000F0E08081CF91DF910895DF93CF93CDB7DA
:10108000DEB7A3E5B0E0E3E5F0E080818F7B8C93F1
:10109000A3E5B0E0E3E5F0E0808188608C93ECE5C7
:1010A000F0E08AEF8083A9E5B0E0E9E5F0E0808137
:1010B00082608C93A3E5B0E0E3E5F0E080818E7F71
:1010C0008C93A3E5B0E0E3E5F0E0808182608C934F
:1010D000A3E5B0E0E3E5F0E080818B7F8C93A9E5A8
:1010E000B0E0E9E5F0E0808182608C93CF91DF9100
:1010F0000895DF93CF93CDB7DEB7A3E5B0E0E3E586
:10110000F0E080818E7F8C93A3E5B0E0E3E5F0E032
:10111000808182608C93A3E5B0E0E3E5F0E080811C
:101120008B7F8C93CF91DF910895DF93CF930F92B4
:10113000CDB7DEB78983E2E5F0E080EC80830F90E5
:10114000CF91DF910895DF93CF93CDB7DEB7E2E281
:10115000F0E082E08083E1E2F0E01082E0E2F0E0A3
:1011600082E08083A6E5B0E0E6E5F0E0808184607F
:101170008C93CF91DF910895DF93CF93CDB7DEB7F6
:10118000A6E5B0E0E6E5F0E0808180628C93A6E51C
:10119000B0E0E6E5F0E0808180688C93A6E5B0E001
:1011A000E6E5F0E0808184608C93E6E5F0E0808104
:1011B0008823DCF7CF91DF910895DF93CF930F92CF
:1011C000CDB7DEB78983E3E2F0E089818083A6E5CD
:1011D000B0E0E6E5F0E080818F7D8C93A6E5B0E09D
:1011E000E6E5F0E0808180688C93A6E5B0E0E6E576
:1011F000F0E0808184608C93E6E5F0E080818823D4
:10120000DCF70F90CF91DF910895DF93CF93CDB7A7
:10121000DEB7A6E5B0E0E6E5F0E080818F7D8C9357
:10122000A6E5B0E0E6E5F0E0808180688C93A6E575
:10123000B0E0E6E5F0E0808184608C93E6E5F0E0E4
:1012400080818823DCF7E3E2F0E08081CF91DF91B9
:101250000895DF93CF93CDB7DEB7A6E5B0E0E6E51E
:10126000F0E0808180618C93A6E5B0E0E6E5F0E0F7
:10127000808180688C93A6E5B0E0E6E5F0E08081AF
:1012800084608C93CF91DF910895DF93CF93CDB796
:10129000DEB7E1E2F0E08081887FCF91DF910895B1
:1012A000DF93CF93CDB7DEB7ADE2B0E0EDE2F0E093
:1012B000808180618C93ADE2B0E0EDE2F0E080816E
:1012C00081608C93ADE2B0E0EDE2F0E080818D7F53
:1012D0008C93AEE2B0E0EEE2F0E080818E7F8C9302
:1012E000ADE2B0E0EDE2F0E0808180648C93CF91DC
:1012F000DF910895DF93CF93CDB7DEB7ADE2B0E0D5
:10130000EDE2F0E0808180618C93ADE2B0E0EDE24F
:10131000F0E0808181608C93ADE2B0E0EDE2F0E03E
:1013200080818D7F8C93AEE2B0E0EEE2F0E08081D0
:101330008E7F8C93ADE2B0E0EDE2F0E080818064DE
:101340008C93CF91DF910895DF93CF93CDB7DEB724
:10135000ADE2B0E0EDE2F0E080818F7E8C93ADE213
:10136000B0E0EDE2F0E0808180648C93CF91DF917A
:101370000895DF93CF930F92CDB7DEB78983EFE265
:10138000F0E089818083EEE2F0E080818823DCF761
:10139000EFE2F0E080810F90CF91DF910895DF932D
:1013A000CF93CDB7DEB7AFE5B0E0EFE5F0E08081F9
:1013B00080688C93CF91DF910895DF93CF93CDB761
:1013C000DEB7AFE5B0E0EFE5F0E080818F778C939A
:1013D000CF91DF910895DF93CF93CDB7DEB72897F4
:1013E0000FB6F894DEBF0FBECDBF8A836B834C83EC
:1013F00019828B81883018F081E08983F2C08C815A
:10140000882309F078C08A81282F30E038872F831D
:101410008F8198858230910561F12F813885233045
:10142000310534F48F8198858130910569F060C071
:101430002F8138852330310589F18F81988584305B
:10144000910509F440C054C0ABE3B0E0EBE3F0E039
:101450008081482F8B81282F30E081E090E0022EA0
:1014600002C0880F991F0A94E2F7809584238C9319
:10147000B8C0A8E3B0E0E8E3F0E08081482F8B81BA
:10148000282F30E081E090E0022E02C0880F991FE3
:101490000A94E2F7809584238C93A3C0A5E3B0E07F
:1014A000E5E3F0E08081482F8B81282F30E081E058
:1014B00090E0022E02C0880F991F0A94E2F78095EF
:1014C00084238C938EC0A2E3B0E0E2E3F0E080815D
:1014D000482F8B81282F30E081E090E0022E02C05F
:1014E000880F991F0A94E2F7809584238C9379C022
:1014F00081E0898376C08C81813009F072C08A8155
:10150000282F30E03E832D838D819E81823091058E
:1015100051F12D813E812330310534F48D819E813E
:101520008130910561F05BC02D813E812330310512
:1015300071F18D819E8184309105E9F150C0ABE35A
:10154000B0E0EBE3F0E08081482F8B81282F30E082
:1015500081E090E0022E02C0880F991F0A94E2F702
:10156000842B8C933EC0A8E3B0E0E8E3F0E08081F8
:10157000482F8B81282F30E081E090E0022E02C0BE
:10158000880F991F0A94E2F7842B8C932AC0A5E355
:10159000B0E0E5E3F0E08081482F8B81282F30E038
:1015A00081E090E0022E02C0880F991F0A94E2F7B2
:1015B000842B8C9316C0A2E3B0E0E2E3F0E08081DC
:1015C000482F8B81282F30E081E090E0022E02C06E
:1015D000880F991F0A94E2F7842B8C9302C081E054
:1015E0008983898128960FB6F894DEBF0FBECDBFE0
:1015F000CF91DF910895DF93CF93CDB7DEB72797D3
:101600000FB6F894DEBF0FBECDBF8A836B835D83B8
:101610004C8319828B81883018F081E0898373C0F4
:101620008A81282F30E03F832E834E815F814230B4
:10163000510559F18E819F818330910534F42E81BB
:101640003F812130310569F05CC04E815F814330BC
:10165000510579F18E819F818430910509F43DC057
:1016600050C0E9E3F0E08081282F30E08B81882FA3
:1016700090E0A90102C0559547958A95E2F7CA0105
:101680008170EC81FD8180833EC0E6E3F0E08081E3
:10169000282F30E08B81882F90E0A90102C055955A
:1016A00047958A95E2F7CA018170EC81FD818083BC
:1016B0002AC0E3E3F0E08081282F30E08B81882F7F
:1016C00090E0A90102C0559547958A95E2F7CA01B5
:1016D0008170EC81FD81808316C0E0E3F0E08081C1
:1016E000282F30E08B81882F90E0A90102C055950A
:1016F00047958A95E2F7CA018170EC81FD8180836C
:1017000002C081E08983898127960FB6F894DEBFF5
:101710000FBECDBFCF91DF910895DF93CF9300D05F
:1017200000D00F92CDB7DEB78A836B8319828A818E
:10173000282F30E03D832C838C819D818230910560
:10174000D9F02C813D812330310534F48C819D8189
:101750008130910561F01FC02C813D81233031051E
:1017600081F08C819D818430910581F014C0EBE380
:10177000F0E08B81808311C0E8E3F0E08B8180830F
:101780000CC0E5E3F0E08B81808307C0E2E3F0E08A
:101790008B81808302C081E0898389810F900F90C3
:1017A0000F900F900F90CF91DF910895DF93CF931B
:1017B00000D000D000D0CDB7DEB78A837C836B83A6
:1017C00019828A81282F30E03E832D834D815E81EE
:1017D0004230510559F18D819E818330910534F459
:1017E0002D813E812130310569F05CC04D815E81E3
:1017F0004330510579F18D819E818430910509F442
:101800003DC050C0EBE3F0E08081282F30E08A81BA
:10181000882F90E0A90102C0559547958A95E2F777
:10182000CA018170EB81FC8180833EC0E8E3F0E077
:101830008081282F30E08A81882F90E0A90102C0A2
:10184000559547958A95E2F7CA018170EB81FC8135
:1018500080832AC0E5E3F0E08081282F30E08A8190
:10186000882F90E0A90102C0559547958A95E2F727
:10187000CA018170EB81FC81808316C0E2E3F0E055
:101880008081282F30E08A81882F90E0A90102C052
:10189000559547958A95E2F7CA018170EB81FC81E5
:1018A000808302C081E08983898126960FB6F894EF
:1018B000DEBF0FBECDBFCF91DF910895DF93CF93F1
:1018C00000D000D00F92CDB7DEB78A836B83198228
:1018D0008B81883018F081E0898372C08A81282F3B
:1018E00030E03D832C838C819D818230910551F1C4
:1018F0002C813D812330310534F48C819D818130F0
:10190000910561F05BC02C813D812330310571F17F
:101910008C819D8184309105E9F150C0ABE3B0E04A
:10192000EBE3F0E08081482F8B81282F30E081E0CD
:1019300090E0022E02C0880F991F0A94E2F78427D4
:101940008C933EC0A8E3B0E0E8E3F0E08081482F4C
:101950008B81282F30E081E090E0022E02C0880FBA
:10196000991F0A94E2F784278C932AC0A5E3B0E07C
:10197000E5E3F0E08081482F8B81282F30E081E083
:1019800090E0022E02C0880F991F0A94E2F7842784
:101990008C9316C0A2E3B0E0E2E3F0E08081482F30
:1019A0008B81282F30E081E090E0022E02C0880F6A
:1019B000991F0A94E2F784278C9302C081E08983FF
:1019C00089810F900F900F900F900F90CF91DF9122
:1019D0000895DF93CF93CDB7DEB7EAE3F0E08CEF65
:1019E0008083E7E3F0E08FEA8083E4E3F0E08CEFCC
:1019F0008083E1E3F0E082EC8083EBE3F0E080EFD2
:101A00008083E8E3F0E08AE18083E5E3F0E083E0CF
:101A10008083E2E3F0E08EEF8083CF91DF91089541
:101A2000DF93CF93CDB7DEB7A7E2B0E0E7E2F0E017
:101A3000808180648C93A7E2B0E0E7E2F0E08081EF
:101A40008F778C93A7E2B0E0E7E2F0E080818F7DB2
:101A50008C93A6E2B0E0E6E2F0E0808181608C93B6
:101A6000A6E2B0E0E6E2F0E080818D7F8C93A6E212
:101A7000B0E0E6E2F0E0808184608C93A6E2B0E022
:101A8000E6E2F0E0808180688C93CF91DF91089549
:101A9000DF93CF930F92CDB7DEB78983A7E2B0E093
:101AA000E7E2F0E08081807E8C93A7E2B0E0E7E29D
:101AB000F0E090818981892B8C93A6E2B0E0E6E288
:101AC000F0E0808180648C93E6E2F0E08081829592
:101AD0008F70882F90E0817090700097A9F3A6E234
:101AE000B0E0E6E2F0E0808180618C93E4E2F0E037
:101AF000808191810F90CF91DF910895DF93CF93F3
:101B0000CDB7DEB7E9970FB6F894DEBF0FBECDBFF5
:101B100089AF84E066E040E00E94EB0989AD8295E0
:101B20008F70882F90E081709070882341F09091A1
:101B3000540181E0692F41E00E94EB0907C09091B8
:101B4000540181E0692F40E00E94EB0989AD829544
:101B500086958770882F90E081709070882341F07F
:101B60009091550181E0692F41E00E94EB0907C087
:101B70009091550181E0692F40E00E94EB0989AD09
:101B80008295869586958370882F90E081709070FD
:101B9000882341F09091560181E0692F41E00E9435
:101BA000EB0907C09091560181E0692F40E00E9447
:101BB000EB0989AD882344F49091570181E0692FA6
:101BC00041E00E94EB0907C09091570181E0692F25
:101BD00040E00E94EB0984E067E041E00E94EB09ED
:101BE00080E090E0A0E8BFE38DAB9EABAFABB8AFB9
:101BF0006DA97EA98FA998AD20E030E04AEF54E4AA
:101C00000E94A402DC01CB0189AB9AABABABBCABAD
:101C100069A97AA98BA99CA920E030E040E85FE39C
:101C20000E94FE0388232CF481E090E098AB8FA7FC
:101C30003FC069A97AA98BA99CA920E03FEF4FE793
:101C400057E40E949E0318164CF56DA97EA98FA932
:101C500098AD20E030E040E251E40E94A402DC01B3
:101C6000CB01BC01CD010E94CE00DC01CB0198ABC1
:101C70008FA70FC088EC90E09EA78DA78DA59EA58D
:101C80000197F1F79EA78DA78FA598A9019798AB0B
:101C90008FA78FA598A9009769F714C069A97AA999
:101CA0008BA99CA90E94CE00DC01CB0198AB8FA729
:101CB0008FA598A99CA78BA78BA59CA50197F1F749
:101CC0009CA78BA784E067E040E00E94EB0980E0DE
:101CD00090E0A0E0B0E48FA398A7A9A7BAA76FA14E
:101CE00078A589A59AA520E030E04AEF54E40E9447
:101CF000A402DC01CB018BA39CA3ADA3BEA36BA16B
:101D00007CA18DA19EA120E030E040E85FE30E942D
:101D1000FE0388232CF481E090E09AA389A33FC0BE
:101D20006BA17CA18DA19EA120E03FEF4FE757E47E
:101D30000E949E0318164CF56FA178A589A59AA557
:101D400020E030E040E251E40E94A402DC01CB013B
:101D5000BC01CD010E94CE00DC01CB019AA389A376
:101D60000FC088EC90E098A38F8F8F8D98A101977A
:101D7000F1F798A38F8F89A19AA101979AA389A3BC
:101D800089A19AA1009769F714C06BA17CA18DA1CC
:101D90009EA10E94CE00DC01CB019AA389A389A158
:101DA0009AA19E8F8D8F8D8D9E8D0197F1F79E8FBD
:101DB0008D8F89AD882F90E081709070882341F0DD
:101DC0009091540181E0692F41E00E94EB0907C026
:101DD0009091540181E0692F40E00E94EB0989ADA8
:101DE0008695882F90E081709070882341F09091C3
:101DF000550181E0692F41E00E94EB0907C09091F5
:101E0000550181E0692F40E00E94EB0989AD86957C
:101E10008695882F90E081709070882341F0909192
:101E2000560181E0692F41E00E94EB0907C09091C3
:101E3000560181E0692F40E00E94EB0989AD86954B
:101E400086958695882F90E081709070882341F068
:101E50009091570181E0692F41E00E94EB0907C092
:101E60009091570181E0692F40E00E94EB0984E0E6
:101E700067E041E00E94EB0980E090E0A0E8BFE36A
:101E8000898F9A8FAB8FBC8F698D7A8D8B8D9C8D4E
:101E900020E030E04AEF54E40E94A402DC01CB01D0
:101EA0008D8B9E8BAF8BB88F6D897E898F89988D36
:101EB00020E030E040E85FE30E94FE0388232CF43A
:101EC00081E090E09C8B8B8B3FC06D897E898F89F0
:101ED000988D20E03FEF4FE757E40E949E031816CD
:101EE0004CF5698D7A8D8B8D9C8D20E030E040E241
:101EF00051E40E94A402DC01CB01BC01CD010E948F
:101F0000CE00DC01CB019C8B8B8B0FC088EC90E06A
:101F10009A8B898B89899A890197F1F79A8B898B9A
:101F20008B899C8901979C8B8B8B8B899C890097D3
:101F300069F714C06D897E898F89988D0E94CE00C3
:101F4000DC01CB019C8B8B8B8B899C89988B8F8739
:101F50008F8598890197F1F7988B8F8784E067E0E8
:101F600040E00E94EB0980E090E0A0E0B0E48B87C5
:101F70009C87AD87BE876B857C858D859E8520E09F
:101F800030E04AEF54E40E94A402DC01CB018F83CD
:101F90009887A987BA876F81788589859A8520E097
:101FA00030E040E85FE30E94FE0388232CF481E0E8
:101FB00090E09E838D833FC06F81788589859A8567
:101FC00020E03FEF4FE757E40E949E0318164CF5C0
:101FD0006B857C858D859E8520E030E040E251E474
:101FE0000E94A402DC01CB01BC01CD010E94CE0005
:101FF000DC01CB019E838D830FC088EC90E09C8335
:102000008B838B819C810197F1F79C838B838D81DE
:102010009E8101979E838D838D819E81009769F7B4
:1020200014C06F81788589859A850E94CE00DC0175
:10203000CB019E838D838D819E819A838983898143
:102040009A810197F1F79A838983E9960FB6F894FC
:10205000DEBF0FBECDBFCF91DF910895DF93CF9349
:10206000CDB7DEB7E9970FB6F894DEBF0FBECDBF90
:1020700089AF84E066E041E00E94EB0989AD82957A
:102080008F70882F90E081709070882341F090913C
:10209000540181E0692F41E00E94EB0907C0909153
:1020A000540181E0692F40E00E94EB0989AD8295DF
:1020B00086958770882F90E081709070882341F01A
:1020C0009091550181E0692F41E00E94EB0907C022
:1020D0009091550181E0692F40E00E94EB0989ADA4
:1020E0008295869586958370882F90E08170907098
:1020F000882341F09091560181E0692F41E00E94D0
:10210000EB0907C09091560181E0692F40E00E94E1
:10211000EB0989AD882344F49091570181E0692F40
:1021200041E00E94EB0907C09091570181E0692FBF
:1021300040E00E94EB0984E067E041E00E94EB0987
:1021400080E090E0A0E8BFE38DAB9EABAFABB8AF53
:102150006DA97EA98FA998AD20E030E04AEF54E444
:102160000E94A402DC01CB0189AB9AABABABBCAB48
:1021700069A97AA98BA99CA920E030E040E85FE337
:102180000E94FE0388232CF481E090E098AB8FA797
:102190003FC069A97AA98BA99CA920E03FEF4FE72E
:1021A00057E40E949E0318164CF56DA97EA98FA9CD
:1021B00098AD20E030E040E251E40E94A402DC014E
:1021C000CB01BC01CD010E94CE00DC01CB0198AB5C
:1021D0008FA70FC088EC90E09EA78DA78DA59EA528
:1021E0000197F1F79EA78DA78FA598A9019798ABA6
:1021F0008FA78FA598A9009769F714C069A97AA934
:102200008BA99CA90E94CE00DC01CB0198AB8FA7C3
:102210008FA598A99CA78BA78BA59CA50197F1F7E3
:102220009CA78BA784E067E040E00E94EB0980E078
:1022300090E0A0E0B0E48FA398A7A9A7BAA76FA1E8
:1022400078A589A59AA520E030E04AEF54E40E94E1
:10225000A402DC01CB018BA39CA3ADA3BEA36BA105
:102260007CA18DA19EA120E030E040E85FE30E94C8
:10227000FE0388232CF481E090E09AA389A33FC059
:102280006BA17CA18DA19EA120E03FEF4FE757E419
:102290000E949E0318164CF56FA178A589A59AA5F2
:1022A00020E030E040E251E40E94A402DC01CB01D6
:1022B000BC01CD010E94CE00DC01CB019AA389A311
:1022C0000FC088EC90E098A38F8F8F8D98A1019715
:1022D000F1F798A38F8F89A19AA101979AA389A357
:1022E00089A19AA1009769F714C06BA17CA18DA167
:1022F0009EA10E94CE00DC01CB019AA389A389A1F3
:102300009AA19E8F8D8F8D8D9E8D0197F1F79E8F57
:102310008D8F89AD882F90E081709070882341F077
:102320009091540181E0692F41E00E94EB0907C0C0
:102330009091540181E0692F40E00E94EB0989AD42
:102340008695882F90E081709070882341F090915D
:10235000550181E0692F41E00E94EB0907C090918F
:10236000550181E0692F40E00E94EB0989AD869517
:102370008695882F90E081709070882341F090912D
:10238000560181E0692F41E00E94EB0907C090915E
:10239000560181E0692F40E00E94EB0989AD8695E6
:1023A00086958695882F90E081709070882341F003
:1023B0009091570181E0692F41E00E94EB0907C02D
:1023C0009091570181E0692F40E00E94EB0984E081
:1023D00067E041E00E94EB0980E090E0A0E8BFE305
:1023E000898F9A8FAB8FBC8F698D7A8D8B8D9C8DE9
:1023F00020E030E04AEF54E40E94A402DC01CB016B
:102400008D8B9E8BAF8BB88F6D897E898F89988DD0
:1024100020E030E040E85FE30E94FE0388232CF4D4
:1024200081E090E09C8B8B8B3FC06D897E898F898A
:10243000988D20E03FEF4FE757E40E949E03181667
:102440004CF5698D7A8D8B8D9C8D20E030E040E2DB
:1024500051E40E94A402DC01CB01BC01CD010E9429
:10246000CE00DC01CB019C8B8B8B0FC088EC90E005
:102470009A8B898B89899A890197F1F79A8B898B35
:102480008B899C8901979C8B8B8B8B899C8900976E
:1024900069F714C06D897E898F89988D0E94CE005E
:1024A000DC01CB019C8B8B8B8B899C89988B8F87D4
:1024B0008F8598890197F1F7988B8F8784E067E083
:1024C00040E00E94EB0980E090E0A0E0B0E48B8760
:1024D0009C87AD87BE876B857C858D859E8520E03A
:1024E00030E04AEF54E40E94A402DC01CB018F8368
:1024F0009887A987BA876F81788589859A8520E032
:1025000030E040E85FE30E94FE0388232CF481E082
:1025100090E09E838D833FC06F81788589859A8501
:1025200020E03FEF4FE757E40E949E0318164CF55A
:102530006B857C858D859E8520E030E040E251E40E
:102540000E94A402DC01CB01BC01CD010E94CE009F
:10255000DC01CB019E838D830FC088EC90E09C83CF
:102560008B838B819C810197F1F79C838B838D8179
:102570009E8101979E838D838D819E81009769F74F
:1025800014C06F81788589859A850E94CE00DC0110
:10259000CB019E838D838D819E819A8389838981DE
:1025A0009A810197F1F79A838983E9960FB6F89497
:1025B000DEBF0FBECDBFCF91DF910895DF93CF93E4
:1025C000CDB7DEB72E970FB6F894DEBF0FBECDBFE6
:1025D00080E090E0A0E2B2E48B879C87AD87BE8765
:1025E0006B857C858D859E8520E030E04AEF54E444
:1025F0000E94A402DC01CB018F839887A987BA8748
:102600006F81788589859A8520E030E040E85FE336
:102610000E94FE0388232CF481E090E09E838D834A
:102620003FC06F81788589859A8520E03FEF4FE72D
:1026300057E40E949E0318164CF56B857C858D85AA
:102640009E8520E030E040E251E40E94A402DC01DB
:10265000CB01BC01CD010E94CE00DC01CB019E83E9
:102660008D830FC088EC90E09C838B838B819C8151
:102670000197F1F79C838B838D819E8101979E83C7
:102680008D838D819E81009769F714C06F81788555
:1026900089859A850E94CE00DC01CB019E838D83C3
:1026A0008D819E819A83898389819A810197F1F72F
:1026B0009A83898383E30E947E0D82E30E947E0DCC
:1026C00088E20E947E0D8FE00E947E0D86E00E94CF
:1026D0007E0D81E00E947E0D2E960FB6F894DEBF2F
:1026E0000FBECDBFCF91DF910895DF93CF93CDB7CC
:1026F000DEB781E00E947E0D80E80E947E0DCF91C2
:10270000DF910895DF93CF93CDB7DEB765970FB60E
:10271000F894DEBF0FBECDBF8D8B8D89882F90E0E2
:102720009E012F5F3F4FB9014AE050E00E94A6078B
:10273000CE0101960E94D01365960FB6F894DEBFC5
:102740000FBECDBFCF91DF9108950F93DF93CF934D
:10275000CDB7DEB768970FB6F894DEBF0FBECDBF1A
:102760006D8B7E8B8F8B988F8D899E89AF89B88D6D
:10277000BC01CD019E012F5F3F4FA90122E002E085
:102780000E942806CE0101960E94D01368960FB6CB
:10279000F894DEBF0FBECDBFCF91DF910F910895AA
:1027A000DF93CF9300D00F92CDB7DEB79B838A83A0
:1027B00019820EC08981282F30E08A819B81FC011B
:1027C000E20FF31F80810E942E1089818F5F898321
:1027D0008981282F30E08A819B81FC01E20FF31F61
:1027E0008081882339F70F900F900F90CF91DF9160
:1027F0000895DF93CF9300D00F92CDB7DEB78A83D1
:102800006B8319828A81882319F480E8898305C043
:102810008A81813011F480EC89838B81803120F4AE
:1028200089819B81890F898389810E947E0D0F9008
:102830000F900F90CF91DF910895DF93CF9300D049
:10284000CDB7DEB78A83198206C084E10E947E0D6F
:1028500089818F5F898399818A819817B0F30F905E
:102860000F90CF91DF910895DF93CF9300D0CDB734
:10287000DEB78A83198206C080E10E947E0D8981BD
:102880008F5F898399818A819817B0F30F900F9099
:10289000CF91DF910895DF93CF93CDB7DEB76F97D8
:1028A0000FB6F894DEBF0FBECDBF9F8F8E8F8E8D7B
:1028B0009F8D0E94D01381E00E9434141D8EEAC0C7
:1028C00080E090E0A8ECB2E4898F9A8FAB8FBC8F48
:1028D000698D7A8D8B8D9C8D20E030E04AEF54E439
:1028E0000E94A402DC01CB018D8B9E8BAF8BB88F35
:1028F0006D897E898F89988D20E030E040E85FE324
:102900000E94FE0388232CF481E090E09C8B8B8B4B
:102910003FC06D897E898F89988D20E03FEF4FE71A
:1029200057E40E949E0318164CF5698D7A8D8B8DA5
:102930009C8D20E030E040E251E40E94A402DC01E2
:10294000CB01BC01CD010E94CE00DC01CB019C8BF0
:102950008B8B0FC088EC90E09A8B898B89899A8940
:102960000197F1F79A8B898B8B899C8901979C8BB6
:102970008B8B8B899C89009769F714C06D897E8940
:102980008F89988D0E94CE00DC01CB019C8B8B8BB4
:102990008B899C89988B8F878F8598890197F1F710
:1029A000988B8F8781E00E941D1480E090E0A8EC56
:1029B000B2E48B879C87AD87BE876B857C858D85D0
:1029C0009E8520E030E04AEF54E40E94A402DC013E
:1029D000CB018F839887A987BA876F81788589858E
:1029E0009A8520E030E040E85FE30E94FE03882300
:1029F0002CF481E090E09E838D833FC06F817885C9
:102A000089859A8520E03FEF4FE757E40E949E03B7
:102A100018164CF56B857C858D859E8520E030E011
:102A200040E251E40E94A402DC01CB01BC01CD01D3
:102A30000E94CE00DC01CB019E838D830FC088EC09
:102A400090E09C838B838B819C810197F1F79C8321
:102A50008B838D819E8101979E838D838D819E8145
:102A6000009769F714C06F81788589859A850E94DF
:102A7000CE00DC01CB019E838D838D819E819A8364
:102A8000898389819A810197F1F79A8389838D8D52
:102A90008F5F8D8F8D8D853008F412CF6F960FB6B6
:102AA000F894DEBF0FBECDBFCF91DF910895DF93C5
:102AB000CF93CDB7DEB7A2970FB6F894DEBF0FBEA7
:102AC000CDBF1C821B821A82198281E08D8384E033
:102AD0008E8385E08F8386E0888787E0898782E020
:102AE0008A8783E08B8784E08C8785E08D87CE01A1
:102AF0000E969F8F8E8FE0E7F1E0F9A3E8A3F0E157
:102B0000FAA3E8A1F9A1008088A199A1019699A34F
:102B100088A3EE8DFF8D00828E8D9F8D01969F8FF5
:102B20008E8F9AA191509AA3EAA1EE2351F71A82AF
:102B30006BC08A81282F30E0CE010696FC01E20F9F
:102B4000F31F908183E0692F40E00E94EB09198216
:102B500043C08981282F30E0CE010A96FC01E20FA4
:102B6000F31F90819E012B5F3F4F84E0692FA901E5
:102B70000E94FB0A8D81882361F511C08981282F6D
:102B800030E0CE010A96FC01E20FF31F90819E0116
:102B90002B5F3F4F84E0692FA9010E94FB0A8D81C2
:102BA000882361F38981282F30E08A81482F50E003
:102BB000220F331F220F331FCE010196820F931F66
:102BC000840F951FFC013D9680818C8381E08B836F
:102BD00007C089818F5F89838981843008F4B9CFE8
:102BE0008A81282F30E0CE010696FC01E20FF31F08
:102BF000908183E0692F41E00E94EB098B8188235B
:102C000039F48A818F5F8A838A81843008F491CF76
:102C10008C81A2960FB6F894DEBF0FBECDBFCF91C8
:102C2000DF910895DF93CF9300D00F92CDB7DEB739
:102C30001B821A8215C00E945715898389818823B7
:102C400079F089810E942E108A819B81FC01E85ACB
:102C5000FE4F898180838A819B8101969B838A8331
:102C600089818D3341F78A819B810197FC01E85A64
:102C7000FE4F108288E591E00F900F900F90CF915A
:102C8000DF910895DF93CF93CDB7DEB760970FB68E
:102C9000F894DEBF0FBECDBF8F87688B0E94BC0843
:102CA00080EA0E94DD0888890E94DD088F850E94E5
:102CB000DD080E94290980E090E0A0E7B1E48B875D
:102CC0009C87AD87BE876B857C858D859E8520E042
:102CD00030E04AEF54E40E94A402DC01CB018F8370
:102CE0009887A987BA876F81788589859A8520E03A
:102CF00030E040E85FE30E94FE0388232CF481E08B
:102D000090E09E838D833FC06F81788589859A8509
:102D100020E03FEF4FE757E40E949E0318164CF562
:102D20006B857C858D859E8520E030E040E251E416
:102D30000E94A402DC01CB01BC01CD010E94CE00A7
:102D4000DC01CB019E838D830FC088EC90E09C83D7
:102D50008B838B819C810197F1F79C838B838D8181
:102D60009E8101979E838D838D819E81009769F757
:102D700014C06F81788589859A850E94CE00DC0118
:102D8000CB019E838D838D819E819A8389838981E6
:102D90009A810197F1F79A83898360960FB6F89428
:102DA000DEBF0FBECDBFCF91DF910895DF93CF93EC
:102DB000CDB7DEB761970FB6F894DEBF0FBECDBFBB
:102DC0008F87798B688B0E94BC0880EA0E94DD089F
:102DD0008F850E94DD080E94BC0881EA0E94DD0800
:102DE0000E940509E889F98980830E94290980E009
:102DF00090E0A0E7B1E48B879C87AD87BE876B85A9
:102E00007C858D859E8520E030E04AEF54E40E9469
:102E1000A402DC01CB018F839887A987BA876F81D1
:102E2000788589859A8520E030E040E85FE30E945C
:102E3000FE0388232CF481E090E09E838D833FC0C5
:102E40006F81788589859A8520E03FEF4FE757E4C9
:102E50000E949E0318164CF56B857C858D859E859A
:102E600020E030E040E251E40E94A402DC01CB010A
:102E7000BC01CD010E94CE00DC01CB019E838D837D
:102E80000FC088EC90E09C838B838B819C810197A1
:102E9000F1F79C838B838D819E8101979E838D8327
:102EA0008D819E81009769F714C06F81788589852F
:102EB0009A850E94CE00DC01CB019E838D838D819B
:102EC0009E819A83898389819A810197F1F79A83F8
:102ED000898361960FB6F894DEBF0FBECDBFCF9148
:102EE000DF910895DF93CF93CDB7DEB764970FB628
:102EF000F894DEBF0FBECDBF988B8F877A8B698B1E
:102F0000EF85F8898081813009F097C080E060E02A
:102F10000E94F91380E690E00E94D01381E060E007
:102F20000E94F9138EE690E00E94D01380E090E0BA
:102F3000AAE7B4E48B879C87AD87BE876B857C85C9
:102F40008D859E8520E030E04AEF54E40E94A40283
:102F5000DC01CB018F839887A987BA876F81788539
:102F600089859A8520E030E040E85FE30E94FE0317
:102F700088232CF481E090E09E838D833FC06F8195
:102F8000788589859A8520E03FEF4FE757E40E94D6
:102F90009E0318164CF56B857C858D859E8520E0FB
:102FA00030E040E251E40E94A402DC01CB01BC010C
:102FB000CD010E94CE00DC01CB019E838D830FC02A
:102FC00088EC90E09C838B838B819C810197F1F747
:102FD0009C838B838D819E8101979E838D838D81C0
:102FE0009E81009769F714C06F81788589859A85DD
:102FF0000E94CE00DC01CB019E838D838D819E815A
:103000009A83898389819A810197F1F79A838983C9
:103010000E94751380E060E00E94F9138EE690E054
:103020000E94D01381E060E00E94F9138DE790E0E8
:103030000E94D013EF85F88910820E945715809363
:10304000DA018091DA018823A9F18091DA01282F31
:1030500030E03C8B2B8B8B899C8982339105A9F0C6
:103060002B893C8923333105D9F08B899C898133A5
:10307000910501F50E947513EF85F88981E0808341
:10308000E989FA8981E0808315C00E947513EF8574
:10309000F88981E08083E989FA8982E080830AC027
:1030A0000E947513EF85F88981E08083E989FA89A8
:1030B00083E0808364960FB6F894DEBF0FBECDBF69
:1030C000CF91DF910895DF93CF93CDB7DEB76297AD
:1030D0000FB6F894DEBF0FBECDBF988B8F877A8B6B
:1030E000698BEF85F8898081813009F085C080E0A7
:1030F00060E00E94F91388E890E00E94D01381E01C
:1031000060E00E94F91389E990E00E94D01380E00A
:1031100090E0AAEFB3E48B879C87AD87BE876B8571
:103120007C858D859E8520E030E04AEF54E40E9446
:10313000A402DC01CB018F839887A987BA876F81AE
:10314000788589859A8520E030E040E85FE30E9439
:10315000FE0388232CF481E090E09E838D833FC0A2
:103160006F81788589859A8520E03FEF4FE757E4A6
:103170000E949E0318164CF56B857C858D859E8577
:1031800020E030E040E251E40E94A402DC01CB01E7
:10319000BC01CD010E94CE00DC01CB019E838D835A
:1031A0000FC088EC90E09C838B838B819C8101977E
:1031B000F1F79C838B838D819E8101979E838D8304
:1031C0008D819E81009769F714C06F81788589850C
:1031D0009A850E94CE00DC01CB019E838D838D8178
:1031E0009E819A83898389819A810197F1F79A83D5
:1031F0008983EF85F88910820E94B91E0E945715B5
:103200008093DA018091DA01882369F08091DA01F4
:10321000833449F40E947513EF85F88981E0808337
:10322000E989FA89108262960FB6F894DEBF0FBE64
:10323000CDBFCF91DF910895DF93CF93CDB7DEB7A8
:1032400062970FB6F894DEBF0FBECDBF988B8F8705
:103250007A8B698BEF85F8898081813009F085C090
:1032600080E060E00E94F91389EA90E00E94D013A8
:1032700081E060E00E94F91389E990E00E94D01398
:1032800080E090E0AAEFB3E48B879C87AD87BE8790
:103290006B857C858D859E8520E030E04AEF54E487
:1032A0000E94A402DC01CB018F839887A987BA878B
:1032B0006F81788589859A8520E030E040E85FE37A
:1032C0000E94FE0388232CF481E090E09E838D838E
:1032D0003FC06F81788589859A8520E03FEF4FE771
:1032E00057E40E949E0318164CF56B857C858D85EE
:1032F0009E8520E030E040E251E40E94A402DC011F
:10330000CB01BC01CD010E94CE00DC01CB019E832C
:103310008D830FC088EC90E09C838B838B819C8194
:103320000197F1F79C838B838D819E8101979E830A
:103330008D838D819E81009769F714C06F81788598
:1033400089859A850E94CE00DC01CB019E838D8306
:103350008D819E819A83898389819A810197F1F772
:103360009A838983EF85F88910820E941F1F0E942B
:1033700057158093DA018091DA01882369F08091F2
:10338000DA01833449F40E947513EF85F88981E0EE
:103390008083E989FA89108262960FB6F894DEBFBD
:1033A0000FBECDBFCF91DF910895DF93CF93CDB7FF
:1033B000DEB762970FB6F894DEBF0FBECDBF988B15
:1033C0008F877A8B698BEF85F8898081813009F04E
:1033D00085C080E060E00E94F9138AEB90E00E94D3
:1033E000D01381E060E00E94F91389E990E00E9427
:1033F000D01380E090E0AAEFB3E48B879C87AD8781
:10340000BE876B857C858D859E8520E030E04AEF08
:1034100054E40E94A402DC01CB018F839887A98722
:10342000BA876F81788589859A8520E030E040E809
:103430005FE30E94FE0388232CF481E090E09E83EA
:103440008D833FC06F81788589859A8520E03FEF25
:103450004FE757E40E949E0318164CF56B857C8558
:103460008D859E8520E030E040E251E40E94A40278
:10347000DC01CB01BC01CD010E94CE00DC01CB01FF
:103480009E838D830FC088EC90E09C838B838B811F
:103490009C810197F1F79C838B838D819E8101979D
:1034A0009E838D838D819E81009769F714C06F8103
:1034B000788589859A850E94CE00DC01CB019E83A8
:1034C0008D838D819E819A83898389819A810197D9
:1034D000F1F79A838983EF85F88910820E94D11EC3
:1034E000882349F00E947513EF85F88981E0808375
:1034F000E989FA8910820E9457158093DA01809138
:10350000DA01882369F08091DA01833449F40E945A
:103510007513EF85F88981E08083E989FA89108243
:1035200062960FB6F894DEBF0FBECDBFCF91DF918C
:103530000895EF92FF920F931F93DF93CF93CDB730
:10354000DEB72C970FB6F894DEBF0FBECDBF9C83BD
:103550008B837E836D8358874F833A8729871C87A7
:103560000B872B813C818D819E81A901481B590BC2
:10357000CA017C0100E010E02B853C8589859A8595
:10358000A901481B590BCA019C0140E050E0C80149
:10359000B7010E94D4257B018C012F813885898554
:1035A0009A85A901481B590BCA019C0140E050E0D3
:1035B000C801B7010E940726DA01C9019C018D816B
:1035C0009E81820F931F9A83898389819A812C9689
:1035D0000FB6F894DEBF0FBECDBFCF91DF911F9124
:1035E0000F91FF90EF9008951F920F920FB60F92D8
:1035F00011240F931F932F933F934F935F936F93D8
:103600007F938F939F93AF93BF93EF93FF93DF933A
:10361000CF93CDB7DEB76C97DEBFCDBF809184016D
:10362000909185010196909385018093840180910A
:103630008401909185012FE0803A920709F0AAC099
:1036400081E00E94B90980E00E94480D9093D80162
:103650008093D7018091D7019091D801CC01A0E04F
:10366000B0E028E833E140E050E0BC01CD010E9429
:10367000D425DC01CB01072E7AE0B695A795979566
:1036800087957A95D1F7702D909381018093800171
:1036900080918001909181012AE030E0B9010E947F
:1036A000F325CB0180938201809182010E94B909A8
:1036B00080E090E0A8E4B2E4898F9A8FAB8FBC8F52
:1036C000698D7A8D8B8D9C8D20E030E04AEF54E43B
:1036D0000E94A402DC01CB018D8B9E8BAF8BB88F37
:1036E0006D897E898F89988D20E030E040E85FE326
:1036F0000E94FE0388232CF481E090E09C8B8B8B4E
:103700003FC06D897E898F89988D20E03FEF4FE71C
:1037100057E40E949E0318164CF5698D7A8D8B8DA7
:103720009C8D20E030E040E251E40E94A402DC01E4
:10373000CB01BC01CD010E94CE00DC01CB019C8BF2
:103740008B8B0FC088EC90E09A8B898B89899A8942
:103750000197F1F79A8B898B8B899C8901979C8BB8
:103760008B8B8B899C89009769F714C06D897E8942
:103770008F89988D0E94CE00DC01CB019C8B8B8BB6
:103780008B899C89988B8F878F8598890197F1F712
:10379000988B8F8780918401909185012FE18034EF
:1037A000920709F095C082E00E94B90981E00E9469
:1037B000480D9093DC018093DB01E091DB01F091F7
:1037C000DC018FEF90E060E070E04FEF53E020E02D
:1037D00030E08F010E94991A8093D9018091D9011C
:1037E0000E94B90980E090E0A8E4B2E48B879C874E
:1037F000AD87BE876B857C858D859E8520E030E01A
:103800004AEF54E40E94A402DC01CB018F83988725
:10381000A987BA876F81788589859A8520E030E00D
:1038200040E85FE30E94FE0388232CF481E090E0EF
:103830009E838D833FC06F81788589859A8520E03E
:103840003FEF4FE757E40E949E0318164CF56B8537
:103850007C858D859E8520E030E040E251E40E9429
:10386000A402DC01CB01BC01CD010E94CE00DC0131
:10387000CB019E838D830FC088EC90E09C838B836B
:103880008B819C810197F1F79C838B838D819E8135
:1038900001979E838D838D819E81009769F714C067
:1038A0006F81788589859A850E94CE00DC01CB01E5
:1038B0009E838D838D819E819A83898389819A815C
:1038C0000197F1F79A838983109285011092840100
:1038D0006C96DEBFCDBFCF91DF91FF91EF91BF918D
:1038E000AF919F918F917F916F915F914F913F9198
:1038F0002F911F910F910F900FBE0F901F90189551
:103900001F920F920FB60F9211242F933F934F9354
:103910005F936F937F938F939F93AF93BF93EF9337
:10392000FF93DF93CF93CDB7DEB76C97DEBFCDBFEC
:10393000ECE2F0E080818093830183E00E94B9098A
:1039400080E090E0A0E2B1E4898F9A8FAB8FBC8FCA
:10395000698D7A8D8B8D9C8D20E030E04AEF54E4A8
:103960000E94A402DC01CB018D8B9E8BAF8BB88FA4
:103970006D897E898F89988D20E030E040E85FE393
:103980000E94FE0388232CF481E090E09C8B8B8BBB
:103990003FC06D897E898F89988D20E03FEF4FE78A
:1039A00057E40E949E0318164CF5698D7A8D8B8D15
:1039B0009C8D20E030E040E251E40E94A402DC0152
:1039C000CB01BC01CD010E94CE00DC01CB019C8B60
:1039D0008B8B0FC088EC90E09A8B898B89899A89B0
:1039E0000197F1F79A8B898B8B899C8901979C8B26
:1039F0008B8B8B899C89009769F714C06D897E89B0
:103A00008F89988D0E94CE00DC01CB019C8B8B8B23
:103A10008B899C89988B8F878F8598890197F1F77F
:103A2000988B8F87809183010E94B90980E090E094
:103A3000A8E4B2E48B879C87AD87BE876B857C85C5
:103A40008D859E8520E030E04AEF54E40E94A40278
:103A5000DC01CB018F839887A987BA876F8178852E
:103A600089859A8520E030E040E85FE30E94FE030C
:103A700088232CF481E090E09E838D833FC06F818A
:103A8000788589859A8520E03FEF4FE757E40E94CB
:103A90009E0318164CF56B857C858D859E8520E0F0
:103AA00030E040E251E40E94A402DC01CB01BC0101
:103AB000CD010E94CE00DC01CB019E838D830FC01F
:103AC00088EC90E09C838B838B819C810197F1F73C
:103AD0009C838B838D819E8101979E838D838D81B5
:103AE0009E81009769F714C06F81788589859A85D2
:103AF0000E94CE00DC01CB019E838D838D819E814F
:103B00009A83898389819A810197F1F79A838983BE
:103B10006C96DEBFCDBFCF91DF91FF91EF91BF914A
:103B2000AF919F918F917F916F915F914F913F9155
:103B30002F910F900FBE0F901F901895DF93CF938A
:103B4000CDB7DEB71092DF011092DE0181E08093E5
:103B5000E00128EC30E080E0B9010E94011E28EC71
:103B600030E080E0B9010E945B1E81E06AE00E94C3
:103B70004216CF91DF910895DF93CF93CDB7DEB793
:103B800081E08093DD0136C08091DD01482F50E057
:103B90008091DD01882F90E09C01220F331FC90125
:103BA000880F991F880F991F820F931F9C01CA01CC
:103BB000880F991F840F951FFC01E252FE4F31833D
:103BC00020838091DD01282F30E0C901880F991FE3
:103BD000820F931FFC01E252FE4F80819181982F4A
:103BE000965F80E0692F0E9442168091DD018F5F11
:103BF0008093DD018091DD018A3030F2CF91DF9139
:103C000008950F931F93DF93CF9300D00F92CDB7FA
:103C1000DEB789837B836A831092DD0124C08091A3
:103C2000DD01282F30E08A819B81FC01E20FF31F28
:103C300040818981282F30E0C901880F991F820FA8
:103C4000931FFC01E252FE4F80819181982F809159
:103C5000DD01980F842F692F0E9442168091DD01AB
:103C60008F5F8093DD018091DD01082F10E08A8154
:103C70009B810E949D070817190788F28981282FC8
:103C800030E0C901880F991F820F931FFC01E25297
:103C9000FE4F80819181982F8091DD01980F80E007
:103CA000692F0E9442160F900F900F90CF91DF91D5
:103CB0001F910F9108950F931F93DF93CF9300D01F
:103CC0000F92CDB7DEB789837B836A831092DD01C3
:103CD00026C08091DD01282F30E08A819B81FC0184
:103CE000E20FF31F40818981282F30E0C901880F3E
:103CF000991F820F931FFC01E252FE4F8081918138
:103D0000982F8091DD01890F982F9B5F842F692F59
:103D10000E9442168091DD018F5F8093DD018091CA
:103D2000DD01082F10E08A819B810E949D07081702
:103D3000190778F28981282F30E0C901880F991F6F
:103D4000820F931FFC01E252FE4F80819181982FD8
:103D50008091DD01890F982F9B5F80E0692F0E9481
:103D600042160F900F900F90CF91DF911F910F91FE
:103D70000895DF93CF930F92CDB7DEB78FEF89838E
:103D80000E944E1F898389818F3F31F00E94CF09A5
:103D90000E943D080E94100D81E00F90CF91DF91AD
:103DA0000895DF93CF93CDB7DEB7AA970FB6F894F7
:103DB000DEBF0FBECDBF8FEF8A838FEF89830E9456
:103DC0004E1F898389818F3F81F10E941D228A8342
:103DD0008A81882341F10E94951F0E9447229C01FD
:103DE000CE010396B9010E9496070E9424200E94EA
:103DF00066229C01CE014796B9010E9496079E015A
:103E00002D5F3F4F8A81B9010E94011E9E01295EEC
:103E10003F4F8A81B9010E945B1E8A810E948522E0
:103E20000E94B32002C00E94422181E0AA960FB6F0
:103E3000F894DEBF0FBECDBFCF91DF910895DF9321
:103E4000CF93CDB7DEB765970FB6F894DEBF0FBE40
:103E5000CDBF8FEF89830E944E1F898389818F3F59
:103E600099F00E9424200E9466229C01CE010296B5
:103E7000B9010E9496079E012E5F3F4F8981B901CB
:103E80000E945B1E0E94F82481E065960FB6F894AC
:103E9000DEBF0FBECDBFCF91DF910895DF93CF93EB
:103EA000CDB7DEB7AA970FB6F894DEBF0FBECDBF71
:103EB0008FEF8A830E94951F0E9447229C01CE01AA
:103EC0000396B9010E949607CE0103960E94D12164
:103ED000898389818F3FD9F00E9424200E94662225
:103EE0009C01CE014796B9010E9496079E01295E6A
:103EF0003F4F8981B9010E94FD21813019F48981E8
:103F00008A8309C00E94DA238FEF8A8304C00E944B
:103F100069248FEF8A838A81AA960FB6F894DEBF50
:103F20000FBECDBFCF91DF910895DF93CF93CDB773
:103F3000DEB72E970FB6F894DEBF0FBECDBF0E943E
:103F4000751380E060E00E94F9138DEC90E00E9410
:103F5000D01380E090E0AAEFB3E48B879C87AD8715
:103F6000BE876B857C858D859E8520E030E04AEF9D
:103F700054E40E94A402DC01CB018F839887A987B7
:103F8000BA876F81788589859A8520E030E040E89E
:103F90005FE30E94FE0388232CF481E090E09E837F
:103FA0008D833FC06F81788589859A8520E03FEFBA
:103FB0004FE757E40E949E0318164CF56B857C85ED
:103FC0008D859E8520E030E040E251E40E94A4020D
:103FD000DC01CB01BC01CD010E94CE00DC01CB0194
:103FE0009E838D830FC088EC90E09C838B838B81B4
:103FF0009C810197F1F79C838B838D819E81019732
:104000009E838D838D819E81009769F714C06F8197
:10401000788589859A850E94CE00DC01CB019E833C
:104020008D838D819E819A83898389819A8101976D
:10403000F1F79A8389832E960FB6F894DEBF0FBEF0
:10404000CDBFCF91DF910895DF93CF93CDB7DEB78A
:104050002E970FB6F894DEBF0FBECDBF0E9475132A
:1040600080E060E00E94F9138CED90E00E94D01394
:1040700080E090E0AAEFB3E48B879C87AD87BE8792
:104080006B857C858D859E8520E030E04AEF54E489
:104090000E94A402DC01CB018F839887A987BA878D
:1040A0006F81788589859A8520E030E040E85FE37C
:1040B0000E94FE0388232CF481E090E09E838D8390
:1040C0003FC06F81788589859A8520E03FEF4FE773
:1040D00057E40E949E0318164CF56B857C858D85F0
:1040E0009E8520E030E040E251E40E94A402DC0121
:1040F000CB01BC01CD010E94CE00DC01CB019E832F
:104100008D830FC088EC90E09C838B838B819C8196
:104110000197F1F79C838B838D819E8101979E830C
:104120008D838D819E81009769F714C06F8178859A
:1041300089859A850E94CE00DC01CB019E838D8308
:104140008D819E819A83898389819A810197F1F774
:104150009A8389832E960FB6F894DEBF0FBECDBF2B
:10416000CF91DF910895DF93CF93CDB7DEB72E9730
:104170000FB6F894DEBF0FBECDBF0E94751380E06E
:1041800060E00E94F9138CEE90E00E94D01380E072
:1041900090E0AAEFB3E48B879C87AD87BE876B85E1
:1041A0007C858D859E8520E030E04AEF54E40E94B6
:1041B000A402DC01CB018F839887A987BA876F811E
:1041C000788589859A8520E030E040E85FE30E94A9
:1041D000FE0388232CF481E090E09E838D833FC012
:1041E0006F81788589859A8520E03FEF4FE757E416
:1041F0000E949E0318164CF56B857C858D859E85E7
:1042000020E030E040E251E40E94A402DC01CB0156
:10421000BC01CD010E94CE00DC01CB019E838D83C9
:104220000FC088EC90E09C838B838B819C810197ED
:10423000F1F79C838B838D819E8101979E838D8373
:104240008D819E81009769F714C06F81788589857B
:104250009A850E94CE00DC01CB019E838D838D81E7
:104260009E819A83898389819A810197F1F79A8344
:1042700089832E960FB6F894DEBF0FBECDBFCF91C7
:10428000DF910895DF93CF93CDB7DEB72E970FB6AA
:10429000F894DEBF0FBECDBF0E94751380E060E0D2
:1042A0000E94F91387EF90E00E94D01380E090E025
:1042B000AAEFB3E48B879C87AD87BE876B857C852F
:1042C0008D859E8520E030E04AEF54E40E94A402F0
:1042D000DC01CB018F839887A987BA876F817885A6
:1042E00089859A8520E030E040E85FE30E94FE0384
:1042F00088232CF481E090E09E838D833FC06F8102
:10430000788589859A8520E03FEF4FE757E40E9442
:104310009E0318164CF56B857C858D859E8520E067
:1043200030E040E251E40E94A402DC01CB01BC0178
:10433000CD010E94CE00DC01CB019E838D830FC096
:1043400088EC90E09C838B838B819C810197F1F7B3
:104350009C838B838D819E8101979E838D838D812C
:104360009E81009769F714C06F81788589859A8549
:104370000E94CE00DC01CB019E838D838D819E81C6
:104380009A83898389819A810197F1F79A83898336
:104390002E960FB6F894DEBF0FBECDBFCF91DF9142
:1043A0000895DF93CF9300D00F92CDB7DEB79A83F5
:1043B00089831092DD0114C08091DD010E94612388
:1043C00029813A81B9010E948D07009721F48091DB
:1043D000DD018B830BC08091DD018F5F8093DD0158
:1043E0008091DD018A3040F38FEF8B838B810F90BA
:1043F0000F900F90CF91DF910895DF93CF9300D06E
:1044000000D0CDB7DEB789837B836A8389810E9420
:104410009D232A813B81B9010E948D07009719F4E1
:1044200081E08C8302C08FEF8C838C810F900F9082
:104430000F900F90CF91DF910895DF93CF930F925C
:10444000CDB7DEB71092DD0118C08091DD01282FB5
:1044500030E0C901880F991F820F931FFC01E052C1
:10446000FE4F8081882321F48091DD0189830AC079
:104470008091DD018F5F8093DD018091DD018A30C5
:1044800020F3198289810F90CF91DF910895DF93F6
:10449000CF93CDB7DEB780E060E00E94F91380E0F3
:1044A00091E00E94D01381E060E00E94F9130E9425
:1044B00012169C0186E891E0B9010E9496070E94BD
:1044C000751386E891E0CF91DF910895DF93CF9344
:1044D000CDB7DEB780E060E00E94F9138EE091E096
:1044E0000E94D01381E060E00E94F9130E9412162E
:1044F0009C018AE991E0B9010E9496070E94751318
:104500008AE991E0CF91DF910895DF93CF930F92E5
:10451000CDB7DEB789838981282F30E0C901880FA4
:10452000991F820F931FFC01E052FE4F81E08083B0
:104530008981282F30E0C901880F991F820F931FAE
:10454000FC01E252FE4F80819181982F965F81E0BD
:10455000692F0E9442160F90CF91DF910895DF934B
:10456000CF930F92CDB7DEB789838981282F30E0B2
:10457000C901880F991F820F931FFC01E052FE4F63
:1045800010828981282F30E0C901880F991F820F7E
:10459000931FFC01E252FE4F80819181982F965F1C
:1045A00080E0692F0E9442160F90CF91DF9108950D
:1045B000DF93CF93CDB7DEB72F970FB6F894DEBF5A
:1045C0000FBECDBF8F878F850E94821380E090E061
:1045D000AAEFB3E48B879C87AD87BE876B857C850C
:1045E0008D859E8520E030E04AEF54E40E94A402CD
:1045F000DC01CB018F839887A987BA876F81788583
:1046000089859A8520E030E040E85FE30E94FE0360
:1046100088232CF481E090E09E838D833FC06F81DE
:10462000788589859A8520E03FEF4FE757E40E941F
:104630009E0318164CF56B857C858D859E8520E044
:1046400030E040E251E40E94A402DC01CB01BC0155
:10465000CD010E94CE00DC01CB019E838D830FC073
:1046600088EC90E09C838B838B819C810197F1F790
:104670009C838B838D819E8101979E838D838D8109
:104680009E81009769F714C06F81788589859A8526
:104690000E94CE00DC01CB019E838D838D819E81A3
:1046A0009A83898389819A810197F1F79A83898313
:1046B0002F960FB6F894DEBF0FBECDBFCF91DF911E
:1046C0000895DF93CF9300D0CDB7DEB78A831092E1
:1046D000DD0125C08A81282F30E0C901880F991F8C
:1046E000820F931FFC01E252FE4F80819181982F2F
:1046F0008091DD01890F9E012F5F3F4FB9010E941C
:10470000D6168091DD01882F90E02981FC01E255C9
:10471000FE4F20838091DD018F5F8093DD018981D1
:10472000882321F08091DD018431A0F28EEA91E0AE
:104730000F900F90CF91DF910895DF93CF9300D02A
:10474000CDB7DEB78A831092DD0126C08A81282F7B
:1047500030E0C901880F991F820F931FFC01E252BC
:10476000FE4F80819181982F8091DD01890F8B5FB1
:104770009E012F5F3F4FB9010E94D6168091DD0147
:10478000882F90E02981FC01EE53FE4F2083809119
:10479000DD018F5F8093DD018981882321F0809185
:1047A000DD01843198F282EC91E00F900F90CF916F
:1047B000DF910895DF93CF93CDB7DEB72E970FB675
:1047C000F894DEBF0FBECDBF0E94751380E060E09D
:1047D0000E94F9138DE191E00E94D01380E090E0F7
:1047E000AAEFB3E48B879C87AD87BE876B857C85FA
:1047F0008D859E8520E030E04AEF54E40E94A402BB
:10480000DC01CB018F839887A987BA876F81788570
:1048100089859A8520E030E040E85FE30E94FE034E
:1048200088232CF481E090E09E838D833FC06F81CC
:10483000788589859A8520E03FEF4FE757E40E940D
:104840009E0318164CF56B857C858D859E8520E032
:1048500030E040E251E40E94A402DC01CB01BC0143
:10486000CD010E94CE00DC01CB019E838D830FC061
:1048700088EC90E09C838B838B819C810197F1F77E
:104880009C838B838D819E8101979E838D838D81F7
:104890009E81009769F714C06F81788589859A8514
:1048A0000E94CE00DC01CB019E838D838D819E8191
:1048B0009A83898389819A810197F1F79A83898301
:1048C0002E960FB6F894DEBF0FBECDBFCF91DF910D
:1048D0000895DF93CF93CDB7DEB72E970FB6F89438
:1048E000DEBF0FBECDBF0E94751380E060E00E9466
:1048F000F9138CE291E00E94D01380E090E0AAEFDF
:10490000B3E48B879C87AD87BE876B857C858D855F
:104910009E8520E030E04AEF54E40E94A402DC01CE
:10492000CB018F839887A987BA876F81788589851E
:104930009A8520E030E040E85FE30E94FE03882390
:104940002CF481E090E09E838D833FC06F81788559
:1049500089859A8520E03FEF4FE757E40E949E0348
:1049600018164CF56B857C858D859E8520E030E0A2
:1049700040E251E40E94A402DC01CB01BC01CD0164
:104980000E94CE00DC01CB019E838D830FC088EC9A
:1049900090E09C838B838B819C810197F1F79C83B2
:1049A0008B838D819E8101979E838D838D819E81D6
:1049B000009769F714C06F81788589859A850E9470
:1049C000CE00DC01CB019E838D838D819E819A83F5
:1049D000898389819A810197F1F79A8389832E9639
:1049E0000FB6F894DEBF0FBECDBFCF91DF91089513
:1049F000DF93CF93CDB7DEB72E970FB6F894DEBF17
:104A00000FBECDBF0E94751380E060E00E94F913D5
:104A10008BE391E00E94D01380E090E0AAEFB3E432
:104A20008B879C87AD87BE876B857C858D859E85B2
:104A300020E030E04AEF54E40E94A402DC01CB0104
:104A40008F839887A987BA876F81788589859A85AA
:104A500020E030E040E85FE30E94FE0388232CF46E
:104A600081E090E09E838D833FC06F81788589854A
:104A70009A8520E03FEF4FE757E40E949E03181607
:104A80004CF56B857C858D859E8520E030E040E28D
:104A900051E40E94A402DC01CB01BC01CD010E94C3
:104AA000CE00DC01CB019E838D830FC088EC90E0AB
:104AB0009C838B838B819C810197F1F79C838B83F3
:104AC0008D819E8101979E838D838D819E8100972C
:104AD00069F714C06F81788589859A850E94CE0018
:104AE000DC01CB019E838D838D819E819A83898396
:104AF00089819A810197F1F79A8389832E960FB65F
:104B0000F894DEBF0FBECDBFCF91DF910895DF9344
:104B1000CF9300D0CDB7DEB70E94E90C0E94DE1221
:104B20000E949E1D0E94BC1D8091D601282F30E05E
:104B30003A83298389819A8181309105E9F029811D
:104B40003A81223031052CF489819A81009761F0F5
:104B5000EBCF29813A8122303105B1F089819A81E8
:104B600083309105C9F0E0CF8CE691E026ED31E08D
:104B7000B9010E947217D8CF8DE691E026ED31E0A1
:104B8000B9010E946318D0CF8EE691E026ED31E0A6
:104B9000B9010E941C19C8CF8FE691E026ED31E0E3
:104BA000B9010E94D519C0CF629FD001739FF00157
:104BB000829FE00DF11D649FE00DF11D929FF00DAD
:104BC000839FF00D749FF00D659FF00D9927729FE4
:104BD000B00DE11DF91F639FB00DE11DF91FBD016F
:104BE000CF0111240895AA1BBB1B51E107C0AA1FC6
:104BF000BB1FA617B70710F0A61BB70B881F991F7E
:104C00005A95A9F780959095BC01CD010895A1E230
:104C10001A2EAA1BBB1BFD010DC0AA1FBB1FEE1F36
:104C2000FF1FA217B307E407F50720F0A21BB30B81
:104C3000E40BF50B661F771F881F991F1A9469F7FD
:104C400060957095809590959B01AC01BD01CF0159
:104C500008952F923F924F925F926F927F928F9220
:104C60009F92AF92BF92CF92DF92EF92FF920F93FB
:104C70001F93CF93DF93CDB7DEB7CA1BDB0B0FB605
:104C8000F894DEBF0FBECDBF09942A8839884888C2
:104C90005F846E847D848C849B84AA84B984C88458
:104CA000DF80EE80FD800C811B81AA81B981CE0F4F
:104CB000D11D0FB6F894DEBF0FBECDBFED01089534
:044CC000F894FFCF96
:104CC40031294F70656E2053797374656D003229F4
:104CD4004368616E676520506173732E0033294108
:104CE40064642055736572004F70656E2053797348
:104CF40074656D204D6F6465005072657373204355
:104D040020746F204261636B004368616E676520A5
:104D1400506173732E4D6F64650041646420557354
:104D24006572204D6F6465003132333400456E7412
:104D3400657220557365722049443A00456E746566
:104D4400722050617373776F72643A0055736572A1
:104D5400204164646564004E6F2053706163650094
:104D6400456E746572205573657220494400456E22
:104D74007465722050617373776F72640057726F39
:104D84006E672050617373776F7264005573657238
:104D9400204E6F7420466F756E6400706173737774
:104DA4006F7264206368616E6765640000000000D0
:104DB40000000000040506070000000000000000D9
:104DC40000000000000000000000000001010101DB
:104DD4003738392F343536583132332D43303D2B63
:00000001FF
